:020000040800F2
:1000000000280020451800082D17000835170008A3
:100010003D170008451700084D17000800000000B4
:10002000000000000000000000000000551700085C
:1000300061170008000000006D170008791700081C
:100040008D1800088D1800088D1800088D180008FC
:100050008D1800088D1800088D1800088D180008EC
:100060008D1800088D1800088D1800088D180008DC
:100070008D1800088D1800088D1800088D180008CC
:100080008D1800088D1800088D1800088D180008BC
:100090008D1800088D1800088D1800088D180008AC
:1000A0008D1800088D1800088D1800088D1800089C
:1000B000851700088D180008000000008D18000842
:1000C0008D18000800000000000000008D180008D6
:1000D000000000008D1800088D18000800000000C6
:1000E0008D1800088D1800088D1800080000000009
:1000F0000000000000000000000000000000000000
:0C01000000000000000000005FF808F1A3
:10010C0010B5054C237833B9044B13B10448AFF345
:10011C0000800123237010BD30000020000000007F
:10012C00C42E000808B5034B1BB103490348AFF3B9
:10013C00008008BD0000000034000020C42E000820
:10014C0080B483B000AF7860094A7B6852F82330E2
:10015C00012B06D1064A7B68002142F823100123AB
:10016C0000E0002318460C37BD4680BC704700BF2A
:10017C009C00002080B582B000AF0821544801F0EB
:10018C006DFE03461A46534B1A602021504801F06D
:10019C0065FE03461A464F4B5A6010214C4801F03D
:1001AC005DFE03461A464B4B9A6000237B6086E04B
:1001BC00494A7B6852F82330042B78D801A252F8B4
:1001CC0023F000BFE5010008070200082B0200081D
:1001DC004F02000885020008404A7B68002142F863
:1001EC0023103C4A7B6852F82330002B61D13A4AE9
:1001FC007B68012142F823105BE0364A7B6852F899
:10020C002330002B05D1344A7B68032142F823109C
:10021C0052E0314A7B68022142F823104CE02D4A0F
:10022C007B6852F82330002B05D12B4A7B680121C7
:10023C0042F8231040E0284A7B68002142F8231042
:10024C003AE0244A7B6852F82330002B0ED1234A23
:10025C007B68012142F82310214B4FF4FA721A608B
:10026C001D4A7B68042142F8231025E01A4A7B685A
:10027C00012142F823101FE0164A7B6852F8233004
:10028C00002B05D0144A7B68012142F8231013E09F
:10029C00134B1B68013B124A1360114B1B68002B5C
:1002AC0009D1104A7B68012142F8231003E000BFFA
:1002BC0002E000BF00E000BF7B6801337B607B681D
:1002CC00022B7FF775AF00BF00BF0837BD4680BD5E
:1002DC00000C01404C000020C40000209C000020B9
:1002EC00000000207400002080B500AFB64B1B68E6
:1002FC00002B1FD0B54B1B68032B1BDCB34B1B68AF
:10030C000533B24A1360FA21032001F045FA0021AB
:10031C00002000F06DFF0121012000F069FF002199
:10032C00022000F065FF0121032000F061FFA64BC5
:10033C0000221A60A54B1B68042B00F2838101A2DA
:10034C0052F823F01704000879040008F10500089E
:10035C0027050008650300089C4B00221A609C4B83
:10036C001B684FF47A7202FB03F31946012001F06B
:10037C0013FA984B1B684FF47A7202FB03F319467D
:10038C00022001F009FAC821032001F005FA4FF40C
:10039C007A71042001F000FA8D4B1B688E4A82FBA7
:1003AC0003129210DB17D31A1946002000F020FF1D
:1003BC00874B1A68884B83FB02139910D317C91A01
:1003CC000B469B000B445B00D11A012000F010FF80
:1003DC00804B1B68804A82FB03129210DB17D31AE6
:1003EC001946022000F004FF7A4B1A687A4B83FB03
:1003FC0002139910D317C91A0B469B000B445B00D0
:10040C00D11A032000F0F4FE25E100F00BFF734B32
:10041C009B68012B40F018816C4B01221A60704BC9
:10042C001B684FF47A7202FB03F31946022001F0A9
:10043C00B3F96B4B1B68684A82FB03129210DB17F3
:10044C00D31A1946022000F0D3FE654B1A68624B92
:10045C0083FB02139910D317C91A0B469B000B444C
:10046C005B00D11A032000F0C3FEEDE000F004FFA6
:10047C005A4B9B68012B40F0E980544B02221A60C6
:10048C00544B1B684FF47A7202FB03F3194601209C
:10049C0001F082F94E4B1B684FF47A7202FB03F3A6
:1004AC001946022001F078F94A4B1B684A4A82FB34
:1004BC0003129210DB17D31A1946002000F098FE95
:1004CC00444B1A68444B83FB02139910D317C91A77
:1004DC000B469B000B445B00D11A012000F088FEF8
:1004EC003B4B1B683C4A82FB03129210DB17D31A5E
:1004FC001946022000F07CFE354B1A68364B83FB04
:10050C0002139910D317C91A0B469B000B445B00BE
:10051C00D11A032000F06CFE98E000F001FF2F4B85
:10052C005B68012B40F09480284B00221A60284B0A
:10053C001B684FF47A7202FB03F31946012001F099
:10054C002BF9244B1B684FF47A7202FB03F3194608
:10055C00022001F021F91E4B1B681F4A82FB03127B
:10056C009210DB17D31A1946002000F041FE184BED
:10057C001A68194B83FB02139910D317C91A0B462F
:10058C009B000B445B00D11A012000F031FE114B93
:10059C001B68114A82FB03129210DB17D31A1946FF
:1005AC00022000F025FE0B4B1A680B4B83FB021349
:1005BC009910D317C91A0B469B000B445B00D11A38
:1005CC00032000F015FE43E09C00002004000020F6
:1005DC000800002010000020676666666C01002091
:1005EC000C00002000F072FE374B5B68012B31D100
:1005FC00364B03221A60364B1B684FF47A7202FB9F
:10060C0003F31946012001F0C7F8314B1B68314A3E
:10061C0082FB03129210DB17D31A1946002000F04C
:10062C00E7FD2B4B1A682B4B83FB02139910D31746
:10063C00C91A0B469B000B445B00D11A012000F039
:10064C00D7FD07E000BF06E000BF04E000BF02E0FA
:10065C0000BF00E000BF1D4B1B68042B31DC1A4BA4
:10066C00DB68012B16D11C4B1B685A1C1A490A60FB
:10067C00184600F047FD184B1B685A4203F0030361
:10068C0002F0030258BF5342134A1360C8210320DF
:10069C0001F082F80C4B1B69012B12D10F4B5B68DC
:1006AC00013B1946012000F0A3FD0C4BDB68013B1C
:1006BC001946032000F09CFD4FF47A71042001F0E0
:1006CC006BF800BF80BD00BF6C010020040000204F
:1006DC000C00002067666666EC0000201400002009
:1006EC0080B500AF3B4B1B68012B0DD13A4B1B68FF
:1006FC00042B09DD384B1B68082B05DC364B0C2210
:10070C001A60344B00221A60334B1B68053B032BD9
:10071C003AD801A252F823F0350700084D0700081B
:10072C00650700087D07000800F07CFD0120FFF73D
:10073C0007FD0346002B29D0274B06221A6025E023
:10074C0000F09AFD0120FFF7FBFC0346002B1FD0A5
:10075C00214B07221A601BE000F0B8FD0120FFF7C7
:10076C00EFFC0346002B15D01B4B08221A6011E03E
:10077C0000F0D6FD0120FFF7E3FC0346002B0BD065
:10078C00154B05221A6007E000BF06E000BF04E02D
:10079C0000BF02E000BF00E000BF104BDB68012B84
:1007AC0016D10F4B1B685A1C0D490A60184600F0F5
:1007BC00A9FC0B4B1B685A4203F0030302F0030223
:1007CC0058BF5342064A1360FA21032000F0E4FF9D
:1007DC0000BF80BD9C000020040000206C010020A4
:1007EC00EC00002080B500AF854B1B68093B032B48
:1007FC0000F24F8201A252F823F000BFAB080008B0
:10080C00970B0008350A0008190800087D4B0022D8
:10081C001A607D4B00221A607C4B00221A607C4BC4
:10082C0000221A60764B09221A6000F0A3FD00F03A
:10083C00D7FD00F0F9FDFA21032000F0ADFF4FF4D5
:10084C00FA71042000F0A8FF6E4B1A68714B1B68FC
:10085C001344714A82FB03129210DB17D31A194608
:10086C00002000F0C5FC674B1A686A4B1B681A44E1
:10087C00694B83FB02139910D317C91A0B469B00C3
:10088C000B445B00D11A012000F0B2FC00210220C5
:10089C0000F0AEFC0221032000F0AAFC00E20020D4
:1008AC00FFF74EFC0346002B30D0554B0B221A6041
:1008BC0000F072FD00F0A6FD534B1A68574B1B68F5
:1008CC001344554A82FB03129210DB17D31A1946B4
:1008DC00002000F08DFC4C4B1A68504B1B681A44DE
:1008EC004D4B83FB02139910D317C91A0B469B006F
:1008FC000B445B00D11A012000F07AFC002102208D
:10090C0000F076FC0321032000F072FC0120FFF7BD
:10091C0017FC0346002B32D03A4B1B680133394A83
:10092C001360384B1A683B4B1B681344632B04DD74
:10093C00384B1B685B42334A1360324B1A68354B99
:10094C001B681344344A82FB03129210DB17D31A30
:10095C001946002000F04CFC2A4B1A682D4B1B68E2
:10096C001A442D4B83FB02139910D317C91A0B464B
:10097C009B000B445B00D11A012000F039FC0220D3
:10098C00FFF7DEFB0346002B25D0224B1A681D4BCC
:10099C001B6813441F4A13601A4B00221A601D4B2C
:1009AC001B681D4A82FB03129210DB17D31A1946DF
:1009BC00002000F01DFC174B1A68174B83FB021329
:1009CC009910D317C91A0B469B000B445B00D11A24
:1009DC00012000F00DFC124B1B69012B40F05B81D8
:1009EC004FF400510F4801F068FA4FF480610D4844
:1009FC0001F063FA4FF4FA71042000F0CDFE4AE1E5
:100A0C0004000020F0000020F4000020F80000207A
:100A1C00EC000020080000206766666610000020CD
:100A2C006C010020000801400020FFF789FB034601
:100A3C00002B2AD0A94B0A221A6000F0F5FC00F01A
:100A4C00BDFCA74B1B68A74A82FB03129210DB1755
:100A5C00D31A1946002000F0CBFBA14B1A68A14B0E
:100A6C0083FB02139910D317C91A0B469B000B4436
:100A7C005B00D11A012000F0BBFB0021022000F02A
:100A8C00B7FB0421032000F0B3FB0120FFF758FB58
:100A9C000346002B32D0944B1B680133924A1360EF
:100AAC00914B1A68914B1B681344632B04DD8F4BDD
:100ABC001B685B428C4A13608B4B1A688B4B1B6810
:100ACC001344884A82FB03129210DB17D31A19467F
:100ADC00002000F08DFB844B1A68844B1B681A4471
:100AEC00804B83FB02139910D317C91A0B469B003A
:100AFC000B445B00D11A012000F07AFB0220FFF7B7
:100B0C001FFB0346002B2BD0784B1A68764B1B68C7
:100B1C001344764A1360744B00221A60724B1A68A5
:100B2C00724B1B6813446F4A82FB03129210DB1743
:100B3C00D31A1946002000F05BFB6B4B1A686B4B09
:100B4C001B681A44674B83FB02139910D317C91AFD
:100B5C000B469B000B445B00D11A012000F048FBB4
:100B6C00634B1B69012B40F098804FF400416148A6
:100B7C0001F0A3F94FF480515E4801F09EF94FF457
:100B8C00FA71042000F008FE87E00020FFF7D8FA85
:100B9C000346002B04D000F023FC504B04221A60B7
:100BAC000120FFF7CDFA0346002B32D0524B1B68C5
:100BBC000133514A1360504B1A68494B1B6813445C
:100BCC00632B04DD464B1B685B424B4A13604A4B5C
:100BDC001A68434B1B681344424A82FB031292105F
:100BEC00DB17D31A1946002000F002FB424B1A689F
:100BFC003B4B1B681A443B4B83FB02139910D317D6
:100C0C00C91A0B469B000B445B00D11A012000F063
:100C1C00EFFA0220FFF794FA0346002B25D0304B55
:100C2C001A68354B1B6813442D4A1360324B002253
:100C3C001A602B4B1B682B4A82FB03129210DB179A
:100C4C00D31A1946002000F0D3FA254B1A68254B0D
:100C5C0083FB02139910D317C91A0B469B000B4444
:100C6C005B00D11A012000F0C3FA214B1B69012B48
:100C7C0015D14FF480411F4801F01FF94FF400616A
:100C8C001C4801F01AF94FF4FA71042000F084FDAD
:100C9C0005E000BF04E000BF02E000BF00E000BFC1
:100CAC00134BDB68012B16D1144B1B685A1C1349D0
:100CBC000A60184600F026FA104B1B685A4203F0E3
:100CCC00030302F0030258BF53420C4A1360FA218B
:100CDC00032000F061FD00BF80BD00BF04000020B8
:100CEC000C00002067666666F400002010000020EF
:100CFC006C01002000080140F8000020EC000020EE
:100D0C0080B582B000AF78607B68092B00F2C88197
:100D1C0001A252F823F000BF4D0D0008A30D0008EE
:100D2C00F90D00084F0E0008A50E0008FB0E000878
:100D3C00510F0008A70F0008FD0F00085310000802
:100D4C0000224FF48071D54801F09FF800224FF437
:100D5C000071D24801F099F800224FF48061CF481D
:100D6C0001F093F800224FF40061CC4801F08DF8AB
:100D7C0000224FF48051C94801F087F800224FF44B
:100D8C000051C64801F081F801224FF48041C3485C
:100D9C0001F07BF8AFE101224FF48071BF4801F004
:100DAC0074F800224FF40071BC4801F06EF8002278
:100DBC004FF48061B94801F068F801224FF40061EA
:100DCC00B64801F062F801224FF48051B34801F0AB
:100DDC005CF801224FF40051B04801F056F80122A2
:100DEC004FF48041AD4801F050F884E100224FF4FB
:100DFC008071AA4801F049F800224FF40071A7480D
:100E0C0001F043F801224FF48061A44801F03DF851
:100E1C0000224FF40061A14801F037F800224FF492
:100E2C0080519E4801F031F801224FF400519B484B
:100E3C0001F02BF800224FF48041984801F025F87E
:100E4C0059E100224FF48071944801F01EF8002201
:100E5C004FF40071914801F018F800224FF48061B2
:100E6C008E4801F012F800224FF400618B4801F01B
:100E7C000CF801224FF48051884801F006F8012249
:100E8C004FF40051854801F000F800224FF48041E6
:100E9C00824800F0FAFF2EE101224FF480717F4866
:100EAC0000F0F3FF00224FF400717C4800F0EDFFDE
:100EBC0000224FF48061794800F0E7FF01224FF4E3
:100ECC000061764800F0E1FF01224FF48051734835
:100EDC0000F0DBFF00224FF40051704800F0D5FF0A
:100EEC0000224FF480416D4800F0CFFF03E1002257
:100EFC004FF48071694800F0C8FF01224FF4007173
:100F0C00664800F0C2FF00224FF48061634800F095
:100F1C00BCFF00224FF40061604800F0B6FF0122D4
:100F2C004FF480515D4800F0B0FF00224FF40051A7
:100F3C005A4800F0AAFF00224FF48041574800F0B5
:100F4C00A4FFD8E000224FF48071544800F09DFFBC
:100F5C0001224FF40071514800F097FF00224FF42A
:100F6C0080614E4800F091FF00224FF400614B4825
:100F7C0000F08BFF00224FF48051484800F085FFB1
:100F8C0000224FF40051454800F07FFF00224FF43F
:100F9C008041424800F079FFADE000224FF48071AF
:100FAC003E4800F072FF00224FF400713B4800F005
:100FBC006CFF00224FF48061384800F066FF01227C
:100FCC004FF40061354800F060FF01224FF480516E
:100FDC00324800F05AFF01224FF400512F4800F024
:100FEC0054FF01224FF480412C4800F04EFF82E068
:100FFC0000224FF48071294800F047FF00224FF483
:10100C000071264800F041FF00224FF48061234814
:10101C0000F03BFF00224FF40061204800F035FF48
:10102C0000224FF480511D4800F02FFF00224FF496
:10103C0000511A4800F029FF00224FF48041174854
:10104C0000F023FF57E000224FF48071134800F0AA
:10105C001CFF00224FF40071104800F016FF002214
:10106C004FF480610D4800F010FF00224FF4006136
:10107C000A4800F00AFF01224FF48051074800F0A3
:10108C0004FF00224FF40051044800F0FEFE002241
:10109C004FF48041014800F0F8FE2CE0000C0140B8
:1010AC0001224FF48071164800F0EFFE01224FF43C
:1010BC000071134800F0E9FE01224FF480611048E2
:1010CC0000F0E3FE01224FF400610D4800F0DDFE5C
:1010DC0001224FF480510A4800F0D7FE01224FF450
:1010EC000051074800F0D1FE01224FF48041044822
:1010FC0000F0CBFE00BF00BF0837BD4680BD00BF6F
:10110C00000C014080B582B000AF78607B68032B87
:10111C005ED801A252F823F0351100085F110008C7
:10112C0089110008B3110008012201212E4800F09A
:10113C00ACFE002202212C4800F0A7FE0022042164
:10114C00294800F0A2FE00220821274800F09DFE4D
:10115C003FE000220121244800F097FE01220221E9
:10116C00214800F092FE002204211F4800F08DFE61
:10117C00002208211C4800F088FE2AE000220121F0
:10118C00194800F082FE00220221174800F07DFE73
:10119C0001220421144800F078FE00220821124894
:1011AC0000F073FE15E0002201210F4800F06DFEE7
:1011BC00002202210C4800F068FE002204210A489B
:1011CC0000F063FE01220821074800F05EFE00E0FB
:1011DC0000BF064A7B6852F823301846FFF790FD93
:1011EC0000BF0837BD4680BD000801401400002038
:1011FC0080B483B000AF786039603B68002B05DCAD
:10120C00074A7B68002142F8231004E004497B68FC
:10121C003A6841F8232000BF0C37BD4680BC7047AC
:10122C001400002080B500AF00224FF4006111487B
:10123C0000F02BFE00224FF480510E4800F025FEEA
:10124C0001224FF480610B4800F01FFE00224FF486
:10125C008041084800F019FE01224FF40041054876
:10126C0000F013FE00224FF40051024800F00DFE76
:10127C0000BF80BD0008014080B500AF00224FF4D4
:10128C000061114800F001FE00224FF480510E481D
:10129C0000F0FBFD01224FF480610B4800F0F5FDDE
:1012AC0001224FF48041084800F0EFFD00224FF47A
:1012BC000041054800F0E9FD00224FF400510248BE
:1012CC0000F0E3FD00BF80BD0008014080B500AF19
:1012DC0000224FF40061114800F0D7FD00224FF4BA
:1012EC0080610E4800F0D1FD01224FF480510B4873
:1012FC0000F0CBFD00224FF48041084800F0C5FD02
:10130C0000224FF40041054800F0BFFD01224FF4CC
:10131C000051024800F0B9FD00BF80BD000801403B
:10132C0080B500AF01224FF40061114800F0ADFD13
:10133C0000224FF480510E4800F0A7FD00224FF41C
:10134C0080610B4800F0A1FD00224FF48041084859
:10135C0000F09BFD00224FF40041054800F095FD84
:10136C0001224FF40051024800F08FFD00BF80BDF8
:10137C000008014080B500AF01224FF40051054830
:10138C0000F083FD01224FF48061024800F07DFDE6
:10139C0000BF80BD0008014080B500AF00224FF4B3
:1013AC000051054800F071FD00224FF480610248A5
:1013BC0000F06BFD00BF80BD0008014080B500AFA0
:1013CC0001224FF48041054800F05FFD01224FF4EB
:1013DC000061024800F059FD00BF80BD00080140CB
:1013EC0080B500AF00224FF48041054800F04DFD60
:1013FC0000224FF40061024800F047FD00BF80BDA1
:10140C000008014080B500AF01224FF400410548AF
:10141C0000F03BFD01224FF48051024800F035FDF5
:10142C0000BF80BD0008014080B500AF00224FF422
:10143C000041054800F029FD00224FF4805102487C
:10144C0000F023FD00BF80BD0008014080B500AF57
:10145C0000F018FA00F012F800F098F800F04AF8D2
:10146C00054801F071F9FEF73FFFFFF739F9FFF777
:10147C00B9F900BFF7E700BFFC00002080B590B0C1
:10148C0000AF07F1180328220021184601F0E8FCF0
:10149C003B1D00221A605A609A60DA601A610223BE
:1014AC00BB610123BB621023FB6200237B6307F14A
:1014BC001803184600F01AFD0346002B01D000F06B
:1014CC00D3F80F237B600023BB600023FB60002359
:1014DC003B6100237B613B1D0021184600F088FF17
:1014EC000346002B01D000F0BFF800BF4037BD46CB
:1014FC0080BD000080B586B000AF07F10803002264
:10150C001A605A609A60DA603B4600221A605A6090
:10151C001D4B4FF080421A601B4B41F63F725A60D4
:10152C00194B00229A60184B0922DA60164B0022E4
:10153C001A61154B00229A61134801F0B5F8034665
:10154C00002B01D000F090F84FF48053BB6007F1F2
:10155C00080319460C4801F033FA0346002B01D05E
:10156C0000F082F800233B6000237B603B46194669
:10157C00054801F00BFC0346002B01D000F074F879
:10158C0000BF1837BD4680BDFC00002080B586B07A
:10159C0000AF07F1080300221A605A609A60DA6003
:1015AC00284B9B69274A43F004039361254B9B69A5
:1015BC0003F004037B607B68224B9B69214A43F058
:1015CC00080393611F4B9B6903F008033B603B6866
:1015DC0000224FF6FF411C4800F057FC00224FF44C
:1015EC007F411A4800F051FC4FF6FF43BB600123CA
:1015FC00FB6000233B6102237B6107F10803194662
:10160C00114800F0AFFA4FF47F43BB600123FB603D
:10161C0000233B6102237B6107F1080319460B4849
:10162C0000F0A0FA3823BB600023FB6001233B6170
:10163C0007F108031946054800F094FA00BF183763
:10164C00BD4680BD0010024000080140000C014066
:10165C0080B582B000AF786000F0BEF8FEF78AFD6E
:10166C0000BF0837BD4680BD80B400AF72B600BF66
:10167C0000BFFDE780B485B000AF154B9B69144AE1
:10168C0043F001039361124B9B6903F00103BB60B0
:10169C00BB680F4BDB690E4A43F08053D3610C4B94
:1016AC00DB6903F080537B607B680A4B5B68FB60F3
:1016BC00FB6823F0E063FB60FB6843F08063FB6036
:1016CC00044AFB68536000BF1437BD4680BC7047AA
:1016DC00001002400000014080B584B000AF78607B
:1016EC007B681B68B3F1804F13D10C4BDB690B4A41
:1016FC0043F00103D361094BDB6903F00103FB6089
:10170C00FB68002200211C2000F0F5F91C2000F0E1
:10171C000EFA00BF1037BD4680BD00BF001002405E
:10172C0080B400AF00BFFDE780B400AF00BFFDE7A1
:10173C0080B400AF00BFFDE780B400AF00BFFDE791
:10174C0080B400AF00BFFDE780B400AF00BFBD4662
:10175C0080BC704780B400AF00BFBD4680BC7047F2
:10176C0080B400AF00BFBD4680BC704780B500AFF1
:10177C0000F0CEF800BF80BD80B500AF024801F08C
:10178C002FF800BF80BD00BFFC00002080B400AF6C
:10179C0000BFBD4680BC704780B483B000AF78609A
:1017AC0039603B68094A82FB03129210DB17D21A8C
:1017BC0007497B6841F82320064A7B68002142F8E0
:1017CC00231000BF0C37BD4680BC70476766666649
:1017DC00440100206C01002080B483B000AF0023D2
:1017EC007B601BE0124A7B6852F823305A1E10496A
:1017FC007B6841F823200E4A7B6852F82330002B7B
:10180C0009DC0B4A7B68002142F82310094A7B68EB
:10181C00012142F823107B6801337B607B68092B24
:10182C00E0DD00BF00BF0C37BD4680BC704700BF79
:10183C00440100206C010020FFF7A8FF0B480C4965
:10184C000C4A002302E0D458C4500433C4188C4210
:10185C00F9D3094A094C002301E013600432A24277
:10186C00FBD301F005FBFFF7F1FD704700000020F2
:10187C0030000020082F00083000002098010020C4
:10188C00FEE7000080B500AF084B1B68074A43F029
:10189C0010031360032000F023F90F2000F008F868
:1018AC00FFF7E8FE0023184680BD00BF0020024071
:1018BC0080B582B000AF7860124B1A68124B1B785F
:1018CC0019464FF47A73B3FBF1F3B2FBF3F31846FA
:1018DC0000F03BF90346002B01D001230EE07B689E
:1018EC000F2B0AD8002279684FF0FF3000F003F973
:1018FC00064A7B681360002300E001231846083772
:10190C00BD4680BD240000202C00002028000020B3
:10191C0080B400AF054B1B781A46054B1B6813446B
:10192C00034A136000BFBD4680BC70472C000020EA
:10193C009401002080B400AF024B1B681846BD46D2
:10194C0080BC70479401002080B485B000AF7860F3
:10195C007B6803F00703FB600C4BDB68BB60BA6869
:10196C004FF6FF031340BB60FB681A02BB681343BE
:10197C0043F0BF6343F40033BB60044ABB68D360DD
:10198C0000BF1437BD4680BC704700BF00ED00E0BF
:10199C0080B400AF044BDB681B0A03F00703184646
:1019AC00BD4680BC704700BF00ED00E080B483B042
:1019BC0000AF0346FB7197F90730002B0BDBFB796B
:1019CC0003F01F02064997F907305B09012000FA62
:1019DC0002F241F8232000BF0C37BD4680BC704793
:1019EC0000E100E080B483B000AF03463960FB71C6
:1019FC0097F90730002B0ADB3B68DAB20C4997F9F0
:101A0C0007301201D2B20B4483F800230AE03B6882
:101A1C00DAB20849FB7903F00F03043B1201D2B28E
:101A2C000B441A7600BF0C37BD4680BC704700BF14
:101A3C0000E100E000ED00E080B489B000AFF86098
:101A4C00B9607A60FB6803F00703FB61FB69C3F1C3
:101A5C000703042B28BF0423BB61FB690433062B4B
:101A6C0002D9FB69033B00E000237B614FF0FF329E
:101A7C00BB6902FA03F3DA43BB681A407B699A40EC
:101A8C004FF0FF317B6901FA03F3D9437B680B40BC
:101A9C00134318462437BD4680BC704780B582B0CE
:101AAC0000AF78607B68013BB3F1807F01D30123E9
:101ABC000FE00A4A7B68013B53600F214FF0FF3067
:101ACC00FFF790FF054B00229A60044B07221A6027
:101ADC00002318460837BD4680BD00BF10E000E06B
:101AEC0080B582B000AF78607868FFF72DFF00BF3B
:101AFC000837BD4680BD80B586B000AF0346B960DF
:101B0C007A60FB7300237B61FFF742FF78617A6890
:101B1C00B9687869FFF790FF024697F90F301146C4
:101B2C001846FFF75FFF00BF1837BD4680BD80B574
:101B3C0082B000AF0346FB7197F907301846FFF7E8
:101B4C0035FF00BF0837BD4680BD80B582B000AF01
:101B5C0078607868FFF7A2FF034618460837BD4641
:101B6C0080BD000080B48BB000AF7860396000237A
:101B7C007B6200233B6261E101227B6A02FA03F380
:101B8C00FB613B681B68FA691340BB61BA69FB696E
:101B9C009A4240F050813B685B68974A93425ED012
:101BAC00954A934275D8954A934258D0934A93429A
:101BBC006FD8934A934252D0914A934269D8914A32
:101BCC0093424CD08F4A934263D88F4A934246D06B
:101BDC008D4A93425DD8122B2AD8122B59D801A2C8
:101BEC0052F823F06B1C0008451C0008571C000819
:101BFC00991C00089F1C00089F1C00089F1C0008D3
:101C0C009F1C00089F1C00089F1C00089F1C0008BC
:101C1C009F1C00089F1C00089F1C00089F1C0008AC
:101C2C009F1C00089F1C00084D1C0008611C00082C
:101C3C00764A934213D02CE03B68DB683B6229E088
:101C4C003B68DB6804333B6224E03B68DB680833A9
:101C5C003B621FE03B68DB680C333B621AE03B687D
:101C6C009B68002B02D104233B6213E03B689B680A
:101C7C00012B05D108233B627B68FA691A6109E0E4
:101C8C0008233B627B68FA695A6103E000233B62DC
:101C9C0000E000BFBB69FF2B01D87B6801E07B68CB
:101CAC0004337B61BB69FF2B02D87B6A9B0002E08B
:101CBC007B6A083B9B003B617B691A680F213B697F
:101CCC0001FA03F3DB431A40396A3B6901FA03F367
:101CDC001A437B691A603B685B6803F08053002BE6
:101CEC0000F0A9804A4B9B69494A43F00103936178
:101CFC00474B9B6903F00103BB60BB68454A7B6A99
:101D0C009B08023352F82330FB607B6A03F0030319
:101D1C009B000F2202FA03F3DB43FA681340FB60CB
:101D2C007B683D4A93420DD07B683C4A934207D076
:101D3C007B683B4A934201D1022304E0032302E077
:101D4C00012300E000237A6A02F003029200934020
:101D5C00FA681343FB602F497B6A9B080233FA68CD
:101D6C0041F823203B685B6803F48013002B06D0FA
:101D7C002C4B9A682B49BB6913438B6006E0294BAB
:101D8C009A68BB69DB43274913408B603B685B68EF
:101D9C0003F40013002B06D0224BDA682149BB69EF
:101DAC001343CB6006E01F4BDA68BB69DB431D496C
:101DBC001340CB603B685B6803F40033002B06D008
:101DCC00184B5A681749BB6913434B6006E0154B17
:101DDC005A68BB69DB43134913404B603B685B6833
:101DEC0003F48033002B1FD00E4B1A680D49BB69CE
:101DFC0013430B601FE000BF0000321000003110D5
:101E0C000000221000002110000012100000111020
:101E1C00001002400000014000080140000C01408D
:101E2C0000100140000401400B4B1A68BB69DB43F6
:101E3C00094913400B607B6A01337B623B681A686B
:101E4C007B6A22FA03F3002B7FF496AE00BF00BF2F
:101E5C002C37BD4680BC70470004014080B485B06F
:101E6C0000AF78600B467B807B689A687B88134058
:101E7C00002B02D00123FB7301E00023FB73FB7BDF
:101E8C0018461437BD4680BC704780B483B000AF91
:101E9C0078600B467B8013467B707B78002B03D0DD
:101EAC007A887B681A6103E07B881A047B681A6164
:101EBC0000BF0C37BD4680BC704780B485B000AF06
:101ECC0078600B467B807B68DB68FB607A88FB68FC
:101EDC0013401A04FB68D9437B880B401A437B6878
:101EEC001A6100BF1437BD4680BC704780B586B000
:101EFC0000AF78607B68002B01D1012372E27B6814
:101F0C001B6803F00103002B00F08780924B5B6889
:101F1C0003F00C03042B0CD08F4B5B6803F00C0309
:101F2C00082B12D18C4B5B6803F48033B3F5803FE4
:101F3C000BD1894B1B6803F40033002B6CD07B68EE
:101F4C005B68002B68D101234CE27B685B68B3F5BE
:101F5C00803F06D1804B1B687F4A43F4803313606B
:101F6C002EE07B685B68002B0CD17B4B1B687A4A9C
:101F7C0023F480331360784B1B68774A23F4802357
:101F8C0013601DE07B685B68B3F5A02F0CD1724B1E
:101F9C001B68714A43F4802313606F4B1B686E4AB5
:101FAC0043F4803313600BE06B4B1B686A4A23F4D9
:101FBC0080331360684B1B68674A23F480231360DB
:101FCC007B685B68002B13D0FFF7B4FC386108E02A
:101FDC00FFF7B0FC02463B69D31A642B01D90323EB
:101FEC0000E25D4B1B6803F40033002BF0D014E0CF
:101FFC00FFF7A0FC386108E0FFF79CFC02463B6948
:10200C00D31A642B01D90323ECE1534B1B6803F463
:10201C000033002BF0D100E000BF7B681B6803F09D
:10202C000203002B63D04C4B5B6803F00C03002BBA
:10203C000BD0494B5B6803F00C03082B1CD1464BAF
:10204C005B6803F48033002B16D1434B1B6803F001
:10205C000203002B05D07B681B69012B01D00123E7
:10206C00C0E13D4B1B6823F0F8027B685B69DB0029
:10207C00394913430B603AE07B681B69002B20D075
:10208C00364B01221A60FFF755FC386108E0FFF768
:10209C0051FC02463B69D31A022B01D90323A1E15F
:1020AC002D4B1B6803F00203002BF0D02A4B1B684E
:1020BC0023F0F8027B685B69DB00274913430B6054
:1020CC0015E0264B00221A60FFF734FC386108E05B
:1020DC00FFF730FC02463B69D31A022B01D90323CC
:1020EC0080E11D4B1B6803F00203002BF0D17B68D1
:1020FC001B6803F00803002B3AD07B689B69002B0C
:10210C0019D0174B01221A60FFF714FC386108E054
:10211C00FFF710FC02463B69D31A022B01D90323AB
:10212C0060E10D4B5B6A03F00203002BF0D0012041
:10213C0000F09CFA1CE00A4B00221A60FFF7FAFB35
:10214C0038610FE0FFF7F6FB02463B69D31A022B0E
:10215C0008D9032346E100BF0010024000004242B0
:10216C0080044242924B5B6A03F00203002BE9D1DC
:10217C007B681B6803F00403002B00F0A68000238F
:10218C00FB758B4BDB6903F08053002B0DD1884B17
:10219C00DB69874A43F08053D361854BDB6903F0DD
:1021AC008053BB60BB680123FB75824B1B6803F437
:1021BC008073002B18D17F4B1B687E4A43F48073CD
:1021CC001360FFF7B7FB386108E0FFF7B3FB02467B
:1021DC003B69D31A642B01D9032303E1754B1B68AC
:1021EC0003F48073002BF0D07B68DB68012B06D1E5
:1021FC006F4B1B6A6E4A43F0010313622DE07B6840
:10220C00DB68002B0CD16A4B1B6A694A23F0010373
:10221C001362674B1B6A664A23F0040313621CE0CB
:10222C007B68DB68052B0CD1614B1B6A604A43F061
:10223C00040313625E4B1B6A5D4A43F00103136295
:10224C000BE05B4B1B6A5A4A23F001031362584B99
:10225C001B6A574A23F0040313627B68DB68002B6C
:10226C0015D0FFF767FB38610AE0FFF763FB024606
:10227C003B69D31A41F28832934201D90323B1E06E
:10228C004B4B1B6A03F00203002BEED014E0FFF75C
:10229C0051FB38610AE0FFF74DFB02463B69D31A4C
:1022AC0041F28832934201D903239BE0404B1B6AD5
:1022BC0003F00203002BEED1FB7D012B05D13C4B2F
:1022CC00DB693B4A23F08053D3617B68DB69002BCD
:1022DC0000F08780364B5B6803F00C03082B61D051
:1022EC007B68DB69022B46D1334B00221A60FFF767
:1022FC0021FB386108E0FFF71DFB02463B69D31A4E
:10230C00022B01D903236DE0294B1B6803F00073EA
:10231C00002BF0D17B681B6AB3F5803F08D1244BAE
:10232C005B6823F400327B689B68214913434B6044
:10233C001F4B5B6823F474127B68196A7B685B6AB9
:10234C000B431B4913434B601B4B01221A60FFF7D5
:10235C00F1FA386108E0FFF7EDFA02463B69D31A4F
:10236C00022B01D903233DE0114B1B6803F00073D2
:10237C00002BF0D035E0104B00221A60FFF7DAFA90
:10238C00386108E0FFF7D6FA02463B69D31A022BF4
:10239C0001D9032326E0064B1B6803F00073002BC6
:1023AC00F0D11EE07B68DB69012B07D1012319E01A
:1023BC000010024000700040600042420B4B5B6812
:1023CC00FB60FB6803F480327B681B6A9A4206D17F
:1023DC00FB6803F470127B685B6A9A4201D001239C
:1023EC0000E0002318461837BD4680BD001002409F
:1023FC0080B584B000AF786039607B68002B01D168
:10240C000123D0E06A4B1B6803F007033A689A4239
:10241C0010D9674B1B6823F0070265493B681343CF
:10242C000B60634B1B6803F007033A689A4201D0B8
:10243C000123B8E07B681B6803F00203002B20D05B
:10244C007B681B6803F00403002B05D0594B5B68B9
:10245C00584A43F4E06353607B681B6803F008033D
:10246C00002B05D0534B5B68524A43F460535360C6
:10247C00504B5B6823F0F0027B689B684D4913431B
:10248C004B607B681B6803F00103002B40D07B681A
:10249C005B68012B07D1474B1B6803F40033002BFF
:1024AC0015D101237FE07B685B68022B07D1414B80
:1024BC001B6803F00073002B09D1012373E03D4B23
:1024CC001B6803F00203002B01D101236BE0394B95
:1024DC005B6823F003027B685B68364913434B60EF
:1024EC00FFF728FAF8600AE0FFF724FA0246FB68C7
:1024FC00D31A41F28832934201D9032353E02D4B76
:10250C005B6803F00C027B685B689B009A42EBD122
:10251C00274B1B6803F007033A689A4210D2244BEE
:10252C001B6823F0070222493B6813430B60204BC6
:10253C001B6803F007033A689A4201D0012332E08A
:10254C007B681B6803F00403002B08D0194B5B68F5
:10255C0023F4E0627B68DB68164913434B607B68AD
:10256C001B6803F00803002B09D0124B5B6823F4A3
:10257C0060527B681B69DB000E4913434B6000F013
:10258C0021F802460B4B5B681B0903F00F030A4949
:10259C00CB5C22FA03F3094A1360094B1B681846FB
:1025AC00FFF786F9002318461037BD4680BD00BFE3
:1025BC000020024000100240DC2E00082400002005
:1025CC002800002080B487B000AF0023FB600023FC
:1025DC00BB6000237B6100237B6000233B611E4BAF
:1025EC005B68FB60FB6803F00C03042B02D0082B28
:1025FC0003D027E0194B3B6127E0FB689B0C03F0F1
:10260C000F03174AD35C7B60FB6803F48033002B09
:10261C0010D0114B5B685B0C03F00103114AD35CC7
:10262C00BB607B680D4A03FB02F2BB68B2FBF3F3A1
:10263C007B6104E07B680C4A02FB03F37B617B69E2
:10264C003B6102E0054B3B6100BF3B6918461C3700
:10265C00BD4680BC704700BF0010024000127A00DB
:10266C00EC2E0008FC2E000800093D0080B485B05B
:10267C0000AF78600A4B1B680A4AA2FB03235B0A73
:10268C007A6802FB03F3FB6000BFFB685A1EFA601A
:10269C00002BF9D100BF00BF1437BD4680BC70477A
:1026AC0024000020D34D621080B582B000AF78605A
:1026BC007B68002B01D1012341E07B6893F83D300E
:1026CC00DBB2002B06D17B68002283F83C207868B3
:1026DC00FFF702F87B68022283F83D207B681A68BA
:1026EC007B6804331946104600F056FA7B680122C9
:1026FC0083F846207B68012283F83E207B68012208
:10270C0083F83F207B68012283F840207B680122FC
:10271C0083F841207B68012283F842207B680122E8
:10272C0083F843207B68012283F844207B680122D4
:10273C0083F845207B68012283F83D20002318464E
:10274C000837BD4680BD000080B485B000AF78600E
:10275C007B6893F83D30DBB2012B01D0012335E0CF
:10276C007B68022283F83D207B681B68DA687B68F3
:10277C001B6842F00102DA607B681B68164A9342C0
:10278C0009D07B681B68B3F1804F04D07B681B6851
:10279C00124A934211D17B681B689B6803F00703B4
:1027AC00FB60FB68062B10D07B681B681A687B6883
:1027BC001B6842F001021A6007E07B681B681A680C
:1027CC007B681B6842F001021A600023184614371C
:1027DC00BD4680BC704700BF002C01400004004087
:1027EC0080B584B000AF78607B681B68DB68FB60E9
:1027FC007B681B681B69BB60BB6803F00203002B82
:10280C0020D0FB6803F00203002B1BD07B681B68F5
:10281C006FF002021A617B6801221A777B681B68D1
:10282C009B6903F00303002B03D0786800F098F940
:10283C0005E0786800F08BF9786800F09AF97B680D
:10284C0000221A77BB6803F00403002B20D0FB682E
:10285C0003F00403002B1BD07B681B686FF0040291
:10286C001A617B6802221A777B681B689B6903F4E8
:10287C004073002B03D0786800F072F905E078689B
:10288C0000F065F9786800F074F97B6800221A771B
:10289C00BB6803F00803002B20D0FB6803F008038F
:1028AC00002B1BD07B681B686FF008021A617B68D9
:1028BC0004221A777B681B68DB6903F00303002B87
:1028CC0003D0786800F04CF905E0786800F03FF927
:1028DC00786800F04EF97B6800221A77BB6803F029
:1028EC001003002B20D0FB6803F01003002B1BD02F
:1028FC007B681B686FF010021A617B6808221A77DC
:10290C007B681B68DB6903F44073002B03D0786889
:10291C0000F026F905E0786800F019F9786800F005
:10292C0028F97B6800221A77BB6803F00103002B9F
:10293C000CD0FB6803F00103002B07D07B681B68ED
:10294C006FF001021A617868FEF782FEBB6803F033
:10295C008003002B0CD0FB6803F08003002B07D006
:10296C007B681B686FF080021A61786800F06FFA60
:10297C00BB6803F04003002B0CD0FB6803F0400352
:10298C00002B07D07B681B686FF040021A617868D7
:10299C0000F0F8F8BB6803F02003002B0CD0FB68A8
:1029AC0003F02003002B07D07B681B686FF020021C
:1029BC001A61786800F042FA00BF1037BD4680BD3E
:1029CC0080B584B000AF786039600023FB737B68FE
:1029DC0093F83C30012B01D10223B4E07B68012237
:1029EC0083F83C207B68022283F83D207B681B68BF
:1029FC009B68BB60BB6823F07703BB60BB6823F4A8
:102A0C007F43BB607B681B68BA689A603B681B6835
:102A1C00B3F5005F3ED0B3F5005F00F28780B3F5ED
:102A2C00805F00F08680B3F5805F7FD8702B1AD062
:102A3C00702B7BD8602B50D0602B77D8502B3CD090
:102A4C00502B73D8402B58D0402B6FD8302B64D0E0
:102A5C00302B6BD8202B60D0202B67D8002B5CD070
:102A6C00102B5AD062E07B6818683B6899683B6809
:102A7C005A683B68DB6800F06AF97B681B689B68E6
:102A8C00BB60BB6843F07703BB607B681B68BA68AC
:102A9C009A604FE07B6818683B6899683B685A6895
:102AAC003B68DB6800F053F97B681B689A687B68AD
:102ABC001B6842F480429A603CE07B6818683B6873
:102ACC0059683B68DB681A4600F0CAF87B681B68DB
:102ADC005021184600F021F92CE07B6818683B68FF
:102AEC0059683B68DB681A4600F0E8F87B681B689D
:102AFC006021184600F011F91CE07B6818683B68EF
:102B0C0059683B68DB681A4600F0AAF87B681B68BA
:102B1C004021184600F001F90CE07B681A683B680C
:102B2C001B681946104600F0F8F803E00123FB730C
:102B3C0000E000BF7B68012283F83D207B68002207
:102B4C0083F83C20FB7B18461037BD4680BD80B413
:102B5C0083B000AF786000BF0C37BD4680BC7047B7
:102B6C0080B483B000AF786000BF0C37BD4680BC2A
:102B7C00704780B483B000AF786000BF0C37BD469F
:102B8C0080BC704780B483B000AF786000BF0C3756
:102B9C00BD4680BC7047000080B485B000AF786043
:102BAC0039607B681B68FB607B682B4A934207D0BB
:102BBC007B68B3F1804F03D07B68284A934208D1DD
:102BCC00FB6823F07003FB603B685B68FA68134397
:102BDC00FB607B68204A934207D07B68B3F1804F3F
:102BEC0003D07B681D4A934208D1FB6823F44073E1
:102BFC00FB603B68DB68FA681343FB60FB6823F0FF
:102C0C0080023B685B691343FB607B68FA681A605F
:102C1C003B689A687B68DA623B681A687B689A62E0
:102C2C007B680D4A934203D13B681A697B681A632F
:102C3C007B6801225A617B681B6903F00103002B3E
:102C4C0005D07B681B6923F001027B681A6100BF09
:102C5C001437BD4680BC7047002C01400004004076
:102C6C0080B487B000AFF860B9607A60FB681B6A0B
:102C7C007B61FB681B6A23F00102FB681A62FB682C
:102C8C009B693B613B6923F0F0033B617B681B0153
:102C9C003A6913433B617B6923F00A037B617A69D0
:102CAC00BB6813437B61FB683A699A61FB687A697C
:102CBC001A6200BF1C37BD4680BC704780B487B019
:102CCC0000AFF860B9607A60FB681B6A7B61FB68D7
:102CDC001B6A23F01002FB681A62FB689B693B615C
:102CEC003B6923F470433B617B681B033A691343D4
:102CFC003B617B6923F0A0037B61BB681B017A6994
:102D0C0013437B61FB683A699A61FB687A691A62C2
:102D1C0000BF1C37BD4680BC704780B485B000AF87
:102D2C00786039607B689B68FB60FB6823F07003FC
:102D3C00FB603A68FB68134343F00703FB607B6856
:102D4C00FA689A6000BF1437BD4680BC704780B4E7
:102D5C0087B000AFF860B9607A603B60FB689B6835
:102D6C007B617B6923F47F437B613B681A027B6840
:102D7C001A43BB6813437A6913437B61FB687A6916
:102D8C009A6000BF1C37BD4680BC704780B485B0CC
:102D9C0000AF786039607B6893F83C30012B01D12F
:102DAC00022341E07B68012283F83C207B680222ED
:102DBC0083F83D207B681B685B68FB607B681B6845
:102DCC009B68BB60FB6823F07003FB603B681B686F
:102DDC00FA681343FB607B681B68FA685A607B686F
:102DEC001B68144A934209D07B681B68B3F1804F6F
:102DFC0004D07B681B68104A93420CD1BB6823F04B
:102E0C008003BB603B685B68BA681343BB607B683C
:102E1C001B68BA689A607B68012283F83D207B6846
:102E2C00002283F83C20002318461437BD4680BC92
:102E3C00704700BF002C01400004004080B483B0F8
:102E4C0000AF786000BF0C37BD4680BC704780B4C3
:102E5C0083B000AF786000BF0C37BD4680BC7047B4
:102E6C0003460244934200D1704703F8011BF9E773
:102E7C0070B500260C4D0D4C641BA410A64209D154
:102E8C0000F01AF800260A4D0A4C641BA410A64246
:102E9C0005D170BD55F8043B98470136EEE755F85F
:102EAC00043B98470136F2E7002F0008002F00087A
:102EBC00002F0008042F0008F8B500BFF8BC08BCB0
:102ECC009E467047F8B500BFF8BC08BC9E467047DC
:102EDC0000000000000000000102030406070809BE
:102EEC0002030405060708090A0B0C0D0E0F10103F
:042EFC0001020000CF
:042F00003101000893
:042F04000D010008B3
:102F0800F4010000040000000700000005000000B4
:102F180002000000000000000700000000000000A0
:102F28000200000000127A001000000001000000FA
:040000050800184592
:00000001FF
